{
  "contractName": "Lotto",
  "abi": [
    {
      "constant": true,
      "inputs": [],
      "name": "maxNumberOfBet",
      "outputs": [
        {
          "name": "",
          "type": "uint256"
        }
      ],
      "payable": false,
      "stateMutability": "view",
      "type": "function"
    },
    {
      "constant": true,
      "inputs": [],
      "name": "totalLottoTickets",
      "outputs": [
        {
          "name": "",
          "type": "uint256"
        }
      ],
      "payable": false,
      "stateMutability": "view",
      "type": "function"
    },
    {
      "constant": true,
      "inputs": [
        {
          "name": "",
          "type": "uint256"
        }
      ],
      "name": "tickets",
      "outputs": [
        {
          "name": "number",
          "type": "uint256"
        }
      ],
      "payable": false,
      "stateMutability": "view",
      "type": "function"
    },
    {
      "constant": true,
      "inputs": [
        {
          "name": "",
          "type": "address"
        }
      ],
      "name": "participantTicketsCount",
      "outputs": [
        {
          "name": "",
          "type": "uint256"
        }
      ],
      "payable": false,
      "stateMutability": "view",
      "type": "function"
    },
    {
      "constant": true,
      "inputs": [
        {
          "name": "",
          "type": "uint256"
        }
      ],
      "name": "winners",
      "outputs": [
        {
          "name": "",
          "type": "address"
        }
      ],
      "payable": false,
      "stateMutability": "view",
      "type": "function"
    },
    {
      "constant": true,
      "inputs": [],
      "name": "maxTicketForParticipant",
      "outputs": [
        {
          "name": "",
          "type": "uint256"
        }
      ],
      "payable": false,
      "stateMutability": "view",
      "type": "function"
    },
    {
      "constant": true,
      "inputs": [],
      "name": "prize",
      "outputs": [
        {
          "name": "",
          "type": "uint256"
        }
      ],
      "payable": false,
      "stateMutability": "view",
      "type": "function"
    },
    {
      "constant": true,
      "inputs": [],
      "name": "range",
      "outputs": [
        {
          "name": "",
          "type": "uint256"
        }
      ],
      "payable": false,
      "stateMutability": "view",
      "type": "function"
    },
    {
      "constant": false,
      "inputs": [
        {
          "name": "number",
          "type": "uint256"
        }
      ],
      "name": "pickNumber",
      "outputs": [],
      "payable": true,
      "stateMutability": "payable",
      "type": "function"
    },
    {
      "constant": false,
      "inputs": [],
      "name": "generateWinner",
      "outputs": [],
      "payable": false,
      "stateMutability": "nonpayable",
      "type": "function"
    }
  ],
  "bytecode": "0x606060405260046002556004600355600a600455341561001e57600080fd5b61077d8061002d6000396000f3006060604052600436106100a4576000357c0100000000000000000000000000000000000000000000000000000000900463ffffffff168063188af657146100a95780631c771e74146100be5780631d52fc0f146100e7578063214fa2cc1461011057806350b44712146101285780638bd8ecfd1461015f578063a2fb1175146101ac578063c2dd79ae1461020f578063e3ac5d2614610238578063e97206a914610261575b600080fd5b34156100b457600080fd5b6100bc61028a565b005b34156100c957600080fd5b6100d16104a5565b6040518082815260200191505060405180910390f35b34156100f257600080fd5b6100fa6104ab565b6040518082815260200191505060405180910390f35b61012660048080359060200190919050506104b1565b005b341561013357600080fd5b6101496004808035906020019091905050610679565b6040518082815260200191505060405180910390f35b341561016a57600080fd5b610196600480803573ffffffffffffffffffffffffffffffffffffffff16906020019091905050610697565b6040518082815260200191505060405180910390f35b34156101b757600080fd5b6101cd60048080359060200190919050506106af565b604051808273ffffffffffffffffffffffffffffffffffffffff1673ffffffffffffffffffffffffffffffffffffffff16815260200191505060405180910390f35b341561021a57600080fd5b6102226106ee565b6040518082815260200191505060405180910390f35b341561024357600080fd5b61024b6106f4565b6040518082815260200191505060405180910390f35b341561026c57600080fd5b6102746106fa565b6040518082815260200191505060405180910390f35b60008060008060019350600092505b60005483101561035d57600580548060010182816102b79190610700565b9160005260206000209001600060076000888152602001908152602001600020600101600087815260200190815260200160002060000160009054906101000a900473ffffffffffffffffffffffffffffffffffffffff16909190916101000a81548173ffffffffffffffffffffffffffffffffffffffff021916908373ffffffffffffffffffffffffffffffffffffffff160217905550508280600101935050610299565b6001549150600060058054905011156104235760058054905060015481151561038257fe5b049150600090505b60058054905081101561041e576005818154811015156103a657fe5b906000526020600020900160009054906101000a900473ffffffffffffffffffffffffffffffffffffffff1673ffffffffffffffffffffffffffffffffffffffff166108fc839081150290604051600060405180830381858888f19350505050151561041157600080fd5b808060010191505061038a565b61049f565b6005600081548110151561043357fe5b906000526020600020900160009054906101000a900473ffffffffffffffffffffffffffffffffffffffff1673ffffffffffffffffffffffffffffffffffffffff166108fc839081150290604051600060405180830381858888f19350505050151561049e57600080fd5b5b50505050565b60025481565b60005481565b600080821180156104c25750600b82105b15156104cd57600080fd5b600354600660003373ffffffffffffffffffffffffffffffffffffffff1673ffffffffffffffffffffffffffffffffffffffff168152602001908152602001600020541115151561051d57600080fd5b6007600083815260200190815260200160002090506060604051908101604052803373ffffffffffffffffffffffffffffffffffffffff168152602001348152602001838152508160010160008360000154815260200190815260200160002060008201518160000160006101000a81548173ffffffffffffffffffffffffffffffffffffffff021916908373ffffffffffffffffffffffffffffffffffffffff16021790555060208201518160010155604082015181600201559050508060000160008154809291906001019190505550600080815480929190600101919050555034600160008282540192505081905550600660003373ffffffffffffffffffffffffffffffffffffffff1673ffffffffffffffffffffffffffffffffffffffff168152602001908152602001600020600081548092919060010191905055506002546000541015156106755761067461028a565b5b5050565b60076020528060005260406000206000915090508060000154905081565b60066020528060005260406000206000915090505481565b6005818154811015156106be57fe5b90600052602060002090016000915054906101000a900473ffffffffffffffffffffffffffffffffffffffff1681565b60035481565b60015481565b60045481565b81548183558181151161072757818360005260206000209182019101610726919061072c565b5b505050565b61074e91905b8082111561074a576000816000905550600101610732565b5090565b905600a165627a7a7230582086957992518bd5012dd2736005494b21a419be25ff3fd6672c665bcab0357bbf0029",
  "source": "pragma solidity ^0.4.0;\ncontract Lotto{\n    \n  struct Ticket{\n      uint number;\n      mapping(uint => LottoTicket) lottoTickets;\n  }\n  \n  struct LottoTicket{\n      address participant;\n      uint amount;\n      uint number;\n  }\n  \n  uint public totalLottoTickets;\n  uint public prize;\n  uint public maxNumberOfBet = 4;\n  uint public maxTicketForParticipant = 4;\n  uint public range = 10;\n  address[] public winners;\n  mapping(address => uint) public participantTicketsCount;\n  mapping(uint => Ticket) public tickets;\n  \n  function pickNumber(uint number) public payable{\n      require(number>0 && number<11);\n      require(participantTicketsCount[msg.sender] <= maxTicketForParticipant);\n      \n      Ticket storage ticket = tickets[number];\n      ticket.lottoTickets[ticket.number] = LottoTicket({\n          participant:msg.sender,\n          amount:msg.value,\n          number:number\n      });\n\n      ticket.number++;\n      \n      totalLottoTickets++;\n      prize+=msg.value;\n      participantTicketsCount[msg.sender]++;\n      \n      if(totalLottoTickets >= maxNumberOfBet){\n          generateWinner();\n      }\n  }\n  \n      function generateWinner() public {\n          uint winTicketNumber = 1;//getRandomNumber();\n          \n          for(uint i=0; i<totalLottoTickets; i++) {\n             winners.push(tickets[winTicketNumber].lottoTickets[i].participant);\n          }\n          \n          uint lotteryPrize = prize;\n          \n          if(winners.length > 0){\n           lotteryPrize = prize/winners.length;\n            for(uint j=0 ; j< winners.length; j++){\n                winners[j].transfer(lotteryPrize);\n            }\n          }else{\n              winners[0].transfer(lotteryPrize);\n          }\n      }\n      \n      function getRandomNumber() private view returns(uint){\n        return (uint(keccak256(block.timestamp, block.difficulty)) % range) + 1;\n      }\n\n\n}",
  "sourcePath": "/Users/valeria/qwerty/lotto/contracts/lotto.sol",
  "compiler": {
    "name": "solc",
    "version": "0.4.21+commit.dfe3193c.Emscripten.clang"
  },
  "schemaVersion": "2.0.0",
  "updatedAt": "2018-05-03T20:29:19.838Z"
}