{
  "contractName": "Lotto",
  "abi": [
    {
      "constant": true,
      "inputs": [],
      "name": "maxNumberOfBet",
      "outputs": [
        {
          "name": "",
          "type": "uint256"
        }
      ],
      "payable": false,
      "stateMutability": "view",
      "type": "function"
    },
    {
      "constant": true,
      "inputs": [],
      "name": "totalLottoTickets",
      "outputs": [
        {
          "name": "",
          "type": "uint256"
        }
      ],
      "payable": false,
      "stateMutability": "view",
      "type": "function"
    },
    {
      "constant": true,
      "inputs": [
        {
          "name": "",
          "type": "uint256"
        }
      ],
      "name": "tickets",
      "outputs": [
        {
          "name": "number",
          "type": "uint256"
        }
      ],
      "payable": false,
      "stateMutability": "view",
      "type": "function"
    },
    {
      "constant": true,
      "inputs": [
        {
          "name": "",
          "type": "address"
        }
      ],
      "name": "participantTicketsCount",
      "outputs": [
        {
          "name": "",
          "type": "uint256"
        }
      ],
      "payable": false,
      "stateMutability": "view",
      "type": "function"
    },
    {
      "constant": true,
      "inputs": [
        {
          "name": "",
          "type": "uint256"
        }
      ],
      "name": "winners",
      "outputs": [
        {
          "name": "",
          "type": "address"
        }
      ],
      "payable": false,
      "stateMutability": "view",
      "type": "function"
    },
    {
      "constant": true,
      "inputs": [],
      "name": "maxTicketForParticipant",
      "outputs": [
        {
          "name": "",
          "type": "uint256"
        }
      ],
      "payable": false,
      "stateMutability": "view",
      "type": "function"
    },
    {
      "constant": true,
      "inputs": [],
      "name": "prize",
      "outputs": [
        {
          "name": "",
          "type": "uint256"
        }
      ],
      "payable": false,
      "stateMutability": "view",
      "type": "function"
    },
    {
      "constant": true,
      "inputs": [],
      "name": "range",
      "outputs": [
        {
          "name": "",
          "type": "uint256"
        }
      ],
      "payable": false,
      "stateMutability": "view",
      "type": "function"
    },
    {
      "payable": true,
      "stateMutability": "payable",
      "type": "fallback"
    },
    {
      "constant": false,
      "inputs": [
        {
          "name": "number",
          "type": "uint256"
        }
      ],
      "name": "pickNumber",
      "outputs": [],
      "payable": true,
      "stateMutability": "payable",
      "type": "function"
    },
    {
      "constant": false,
      "inputs": [],
      "name": "generateWinner",
      "outputs": [],
      "payable": true,
      "stateMutability": "payable",
      "type": "function"
    }
  ],
  "bytecode": "0x606060405260046002556004600355600a600455341561001e57600080fd5b61076a8061002d6000396000f3006060604052600436106100a4576000357c0100000000000000000000000000000000000000000000000000000000900463ffffffff168063188af657146100a65780631c771e74146100b05780631d52fc0f146100d9578063214fa2cc1461010257806350b447121461011a5780638bd8ecfd14610151578063a2fb11751461019e578063c2dd79ae14610201578063e3ac5d261461022a578063e97206a914610253575b005b6100ae61027c565b005b34156100bb57600080fd5b6100c3610497565b6040518082815260200191505060405180910390f35b34156100e457600080fd5b6100ec61049d565b6040518082815260200191505060405180910390f35b61011860048080359060200190919050506104a3565b005b341561012557600080fd5b61013b6004808035906020019091905050610666565b6040518082815260200191505060405180910390f35b341561015c57600080fd5b610188600480803573ffffffffffffffffffffffffffffffffffffffff16906020019091905050610684565b6040518082815260200191505060405180910390f35b34156101a957600080fd5b6101bf600480803590602001909190505061069c565b604051808273ffffffffffffffffffffffffffffffffffffffff1673ffffffffffffffffffffffffffffffffffffffff16815260200191505060405180910390f35b341561020c57600080fd5b6102146106db565b6040518082815260200191505060405180910390f35b341561023557600080fd5b61023d6106e1565b6040518082815260200191505060405180910390f35b341561025e57600080fd5b6102666106e7565b6040518082815260200191505060405180910390f35b60008060008060019350600092505b60005483101561034f57600580548060010182816102a991906106ed565b9160005260206000209001600060076000888152602001908152602001600020600101600087815260200190815260200160002060000160009054906101000a900473ffffffffffffffffffffffffffffffffffffffff16909190916101000a81548173ffffffffffffffffffffffffffffffffffffffff021916908373ffffffffffffffffffffffffffffffffffffffff16021790555050828060010193505061028b565b6001549150600060058054905011156104155760058054905060015481151561037457fe5b049150600090505b6005805490508110156104105760058181548110151561039857fe5b906000526020600020900160009054906101000a900473ffffffffffffffffffffffffffffffffffffffff1673ffffffffffffffffffffffffffffffffffffffff166108fc839081150290604051600060405180830381858888f19350505050151561040357600080fd5b808060010191505061037c565b610491565b6005600081548110151561042557fe5b906000526020600020900160009054906101000a900473ffffffffffffffffffffffffffffffffffffffff1673ffffffffffffffffffffffffffffffffffffffff166108fc839081150290604051600060405180830381858888f19350505050151561049057600080fd5b5b50505050565b60025481565b60005481565b600080821180156104b45750600b82105b15156104bf57600080fd5b600354600660003373ffffffffffffffffffffffffffffffffffffffff1673ffffffffffffffffffffffffffffffffffffffff168152602001908152602001600020541115151561050f57600080fd5b6007600083815260200190815260200160002090506060604051908101604052803373ffffffffffffffffffffffffffffffffffffffff168152602001348152602001838152508160010160008360000154815260200190815260200160002060008201518160000160006101000a81548173ffffffffffffffffffffffffffffffffffffffff021916908373ffffffffffffffffffffffffffffffffffffffff1602179055506020820151816001015560408201518160020155905050806000016000815480929190600101919050555060008081548092919060010191905055503460015401600181905550600660003373ffffffffffffffffffffffffffffffffffffffff1673ffffffffffffffffffffffffffffffffffffffff168152602001908152602001600020600081548092919060010191905055506002546000541015156106625761066161027c565b5b5050565b60076020528060005260406000206000915090508060000154905081565b60066020528060005260406000206000915090505481565b6005818154811015156106ab57fe5b90600052602060002090016000915054906101000a900473ffffffffffffffffffffffffffffffffffffffff1681565b60035481565b60015481565b60045481565b815481835581811511610714578183600052602060002091820191016107139190610719565b5b505050565b61073b91905b8082111561073757600081600090555060010161071f565b5090565b905600a165627a7a723058209380a57e321fcf3d1b444347c34c88e6e5d907df874af3d5fd0925053c80e1060029",
  "source": "pragma solidity ^0.4.0;\n\ncontract Lotto {\n\n    struct Ticket {\n        uint number;\n        mapping(uint => LottoTicket) lottoTickets;\n    }\n\n    struct LottoTicket {\n        address participant;\n        uint amount;\n        uint number;\n    }\n\n    uint public totalLottoTickets;\n    uint public prize;\n    uint public maxNumberOfBet = 4;\n    uint public maxTicketForParticipant = 4;\n    uint public range = 10;\n    address[] public winners;\n    mapping(address => uint) public participantTicketsCount;\n    mapping(uint => Ticket) public tickets;\n\n    function() public payable{}\n\n    function pickNumber(uint number) public payable {\n        require(number > 0 && number < 11);\n        require(participantTicketsCount[msg.sender] <= maxTicketForParticipant);\n\n        Ticket storage ticket = tickets[number];\n        ticket.lottoTickets[ticket.number] = LottoTicket({\n            participant : msg.sender,\n            amount : msg.value,\n            number : number\n            });\n\n        ticket.number++;\n\n        totalLottoTickets++;\n        prize = prize + msg.value;\n        participantTicketsCount[msg.sender]++;\n\n        if (totalLottoTickets >= maxNumberOfBet) {\n            generateWinner();\n        }\n    }\n\n    function generateWinner() public payable{\n        uint winTicketNumber = 1;\n        //getRandomNumber();\n\n        for (uint i = 0; i < totalLottoTickets; i++) {\n            winners.push(tickets[winTicketNumber].lottoTickets[i].participant);\n        }\n\n        uint lotteryPrize = prize;\n\n        if (winners.length > 0) {\n            lotteryPrize = prize / winners.length;\n            for (uint j = 0; j < winners.length; j++) {\n                winners[j].transfer(lotteryPrize);\n            }\n        } else {\n            winners[0].transfer(lotteryPrize);\n        }\n    }\n\n    function getRandomNumber() private view returns (uint){\n        return (uint(keccak256(block.timestamp, block.difficulty)) % range) + 1;\n    }\n\n\n}\n",
  "sourcePath": "/Users/valeria/qwerty/lotto/contracts/lotto.sol",
  "compiler": {
    "name": "solc",
    "version": "0.4.21+commit.dfe3193c.Emscripten.clang"
  },
  "schemaVersion": "2.0.0",
  "updatedAt": "2018-05-09T07:35:35.358Z"
}